:100000001CC037C036C035C034C033C032C031C068
:1000100030C095C02EC02DC02CC02BC02AC029C016
:1000200028C027C026C025C024C023C022C021C0AC
:1000300020C01FC059C94B5DEA0211241FBECFEF7B
:10004000CDBFDFE3DEBF809140008093400081118F
:1000500005C098ED21E094BF209341008CBB2FE3B5
:10006000A0E0BFE301C01D92AB31B207E1F796D02B
:10007000AAC1C6CF0F931F93AB01BC018FB7F894F1
:100080000091153F1091163F2091173F3091183F76
:100090008FBFEFB7F8948091153F9091163FA091D4
:1000A000173FB091183FEFBF801B910BA20BB30B12
:1000B00084179507A607B70760F31F910F9108955E
:1000C00090E080E041E050E0FC0123E0F595E79509
:1000D0002A95E1F7EC5CFF4FE491282F2770BA01D5
:1000E00002C0660F771F2A95E2F7E623079A209150
:1000F0001704277F20931704E11117C00F98EFE131
:10010000FEE43197F1F700C0000001968C329105B2
:10011000D9F6079A80911704877F809317040F9868
:100120006AE570E080E090E0A5CF2FE1215069F30F
:100130001199FECF0F98119BFECF0F9AF7CF8F9397
:1001400082E080930B0A8FB78F93EF93FF93E1E1E7
:10015000FFE39F9368948FEF0DC0E89484819581AD
:10016000805D9C4F84839583885E934080F0848378
:1001700095838FEF9081981B919390819F4F9193DE
:1001800090819F4F919390819F4F919336F39F91D0
:10019000FF91EF918F918FBF8F91189588ED90E02F
:1001A00084BF90936100E0E0F6E083E582838DE018
:1001B000858380E2838381E0808380930202809341
:1001C000030A8EEF8093260A8093270A8BE08093A0
:1001D000000A82E080930A0A7894069880911604B7
:1001E000877F80931604069880911604877F8093FA
:1001F0001604079880911704877F8093170401984D
:1002000080911104877F80931104009880911004DD
:10021000877F80931004029880911204877F8093D7
:100220001204069880911604877F80931604039821
:1002300080911304877F8093130468E27AE080E062
:1002400090E018DFF894169BFECF60E56A95F1F711
:100250000B98039A80911304877F8093130481E2A3
:100260008A95F1F70000039880911304877F8093AB
:1002700013047894069880911604877F809316045F
:10028000069880911604877F80931604129BFECFF8
:10029000119BFECFC1E0D0E008E01BE087E893E1CE
:1002A0000197F1F700C00000F89430910D3F809164
:1002B0000E3F90910F3F20E050E040E04830510564
:1002C000E1F0129B0AC00196893E63E09607C8F3ED
:1002D00090E080E020E030E0EFCF129BFECF109B5B
:1002E00007C0CE01042E01C0880F0A94EAF7382B0C
:1002F0004F5F5F4F90E080E0E1CFE22FF0E0EF5FF3
:10030000F04C30832F5F2C3030F380930E3F90936E
:100310000F3F10920D3F0093103F78942091013FC2
:100320008091003F26FF3CC024FD3AC027FD38C025
:100330009091023F911145C09091073F911141C0AA
:100340009091033F30E6390F333038F09130C9F5E2
:100350009091043F93509539A0F18F5F8093003FB7
:100360008091003F8F3008F499CF1093003F079A97
:1003700080911704877F809317040F986AE570E0D7
:1003800080E090E077DE9CDE9BDE9ADE99DE98DEF0
:1003900097DE079880911704877F809317047ECF9C
:1003A00090E08823E9F2213011F0992341F09091F7
:1003B000023F911104C09091073F992371F281503F
:0A03C000CDCF91E0EECFF894FFCF0F
:00000001FF
